:020000040800F2
:100000000000022079030008E9030008ED0300085E
:100010007503000875030008750300080000000060
:100020000000000000000000000000007503000850
:10003000750300080000000075030008A101000816
:1000400075030008750300087503000875030008B0
:1000500075030008750300087503000875030008A0
:100060007503000875030008750300087503000890
:100070007503000875030008750300087503000880
:100080007503000875030008750300087503000870
:100090007503000875030008750300087503000860
:1000A0007503000875030008750300087503000850
:1000B0007503000875030008750300087503000840
:1000C0007503000875030008750300087503000830
:1000D00075030008750300080D0400087503000887
:1000E0007503000875030008750300087503000810
:1000F0007503000875030008750300087503000800
:1001000075030008750300087503000875030008EF
:1001100075030008750300087503000875030008DF
:1001200075030008750300087503000875030008CF
:1001300075030008750300087503000875030008BF
:1001400075030008750300087503000875030008AF
:10015000750300087503000875030008750300089F
:10016000750300087503000875030008750300088F
:10017000750300087503000875030008750300087F
:08018000750300087503000877
:10018800014B07221A60704710E000E0014B05227E
:100198001A60704710E000E0024A136801331360E8
:1001A800704700BF2C0000200C4B0D4A1B68A2FBB7
:1001B80003239B0C013BB3F1807F00D3FEE7094A80
:1001C800094810B4F0245360002180F82340072325
:1001D80091605DF8044B1360704700BF1400002065
:1001E80083DE1B4310E000E000ED00E030B583B093
:1001F80000250091032469468DF804208DF8073006
:100208008DF806508DF8054000F08AFD03B030BD2A
:100218002DE9F0434FF4003089B0012100F004FCCF
:10022800264F274E0120014600F0DAFB0024012565
:100238004FF002084FF00C09384602A9CDF8089093
:100248008DF80C808DF80D808DF80E408DF80F50CC
:1002580000F066FD38464146072200F0FBFD3846AF
:100268000722032100F0F6FD4FF46133304604A95C
:100278000493ADF81440ADF81640ADF81840ADF849
:100288001C40ADF81A9000F07FFE2A46304640F236
:10029800255100F0D9FF262301A88DF804308DF8E8
:1002A80005408DF806408DF8075000F091F930466A
:1002B800294600F0EFFE09B0BDE8F08300000240D7
:1002C8000044004070B50B780C4606468BB10948CF
:1002D800402100F0D7FF0028F9D02546304615F810
:1002E800011B00F00BFF237863780BB12C46EEE777
:1002F80070BD70BD0044004010B5174C237893B909
:10030800164B1B6913F0010211D1154B15491A60E0
:100318000120072220700A601A68B2F5FA6FFBD331
:10032800104B05221A600D4B1B69DB0700D410BD6A
:100338000D484FF4804100F089FD094B094900221E
:1003480007201A60227008601A68B2F5FA6FFBD3AA
:10035800044B05221A6010BD000000200000024076
:100368002C00002010E000E0000C0240FEE700BF77
:100378006846164A164B20F007018D469A4201B589
:100388000CD2D043184420F00300124B0430184418
:1003980053F8041B42F8041B8342F9D10E4B0F4A51
:1003A80093420AD2D9430A4422F0030204321A447F
:1003B800002143F8041B9342FBD100F04BF800F0F6
:1003C80099FFBDE801408546704700BF0000002046
:1003D80028000020D8130008280000203001002041
:1003E800704700BFFEE700BFFEE700BFFEE700BFA3
:1003F800FEE700BF704700BF704700BF704700BFEF
:10040800704700BF70B5104C40F22551204600F0EF
:1004180043FF90B1A3880D4CDBB20A2B226801D0B0
:10042800FE2A0BDD0A4B08480A269E540025256043
:100438001946BDE87040FFF745BF70BD04488354B6
:10044800511C216070BD00BF0044004028000020FE
:1004580030000020364B37481A68002142F001026C
:100468001A6099601A6822F0847222F480321A6045
:1004780058601A6882B022F480221A60D96000910C
:1004880001911A6842F480321A601A4603E0009B10
:10049800B3F5A04F09D0136803F400330193009B10
:1004A80001330093019B002BF1D0214B1B6813F4FF
:1004B800003318BF01230193019B012B05D01E4B6C
:1004C8004FF000629A6002B07047194B1B491A6CD2
:1004D8001B4842F080521A640A6842F440420A609B
:1004E8009A689A609A6842F400429A609A6842F45C
:1004F800A0529A6058601A6842F080721A601A46D0
:1005080011680B4B8901FBD50E4A40F20571116049
:100518009A6822F003029A609A6842F002029A608E
:100528001A46936803F00C03082BFAD1C7E700BFFB
:10053800003802401030002400ED00E00070004058
:1005480008544007003C02401848836803F00C0335
:10055800042B28D0082B09D0154B144A154992684A
:10056800C2F303128A5CD3400B6170474368416849
:1005780013F4800F436818BF0F4801F03F020CBF07
:100588000B49B0FBF2F1C3F3881308BFB1FBF2F1DA
:1005980001FB03F2054B5B68C3F3014301335B00C6
:1005A800B2FBF3F3D9E7044BD7E700BF00380240AA
:1005B8000024F4000400002000127A0040F0BF601C
:1005C800024B40F40030D860704700BF00ED00E0F7
:1005D800C3785BB9037818485A09203203F01F031F
:1005E800012101FA03F340F822307047134BF0B4AD
:1005F800D9684578827804780F4EC943C1F302213F
:10060800C1F10407FFB20F23BD400B411340E9B20B
:100618000B4304F1604202F561421B01DBB282F830
:1006280000330378012203F01F015B098A4046F872
:100638002320F0BC704700BF00E100E000ED00E0BF
:1006480021F0604121F07F01014B08439860704719
:1006580000ED00E0044A136919B923EA00001061AB
:10066800704718431061704700ED00E0044A1368B2
:1006780004280CBF43F0040323F0040313607047FD
:1006880010E000E00F4B10481A68002142F0010208
:1006980030B41A6099601A680C4D0D4C22F0A852BB
:1006A80022F410221A605D60C3F88440C3F8880001
:1006B8001A6822F480221A6030BCD960C3F88C1002
:1006C800704700BF0038024000300024103000247A
:1006D80000300020024B00221A701870704700BFCB
:1006E8000238024082B000230A4A019302E0B3F5BF
:1006F800A04F08D0136813F4003F019B03F10103D6
:100708000193019BF3D0034B1868C0F3404002B03B
:10071800704700BF00380240034A136823F0F8030B
:1007280043EAC0001060704700380240014B18606F
:10073800704700BF00004742064B002201281A708C
:100748001A7005D0042802D105221A707047704724
:100758001870704770380240014B1860704700BF2E
:10076800800E474230B4029C064D40EA04600143C3
:100778005B08013B41EA821242EA0340686030BCF0
:10078800704700BF00380240014B1860704700BF37
:10079800600047420907034B41EA8010C3F8840010
:1007A800704700BF00380240014B1860704700BF17
:1007B80068004742120742EA0161034B41EA801090
:1007C800C3F88800704700BF00380240014B18602A
:1007D800704700BF70004742014B1860704700BF68
:1007E8004C004742034A936823F0EC6319430843DB
:1007F8009060704700380240034A936823F07843BA
:10080800194308439060704700380240034A9368D0
:1008180023F0030318439060704700BF003802407C
:10082800024B986800F00C00704700BF0038024087
:10083800034A936823F0F00318439060704700BFA1
:1008480000380240034A936823F4E0531843906049
:10085800704700BF00380240034A936823F460439E
:1008680043EAC000906070470038024010B4214C41
:10087800A36803F00C03042B1BD0082B1CD01E4BC1
:1008880003601C4A1D499468C4F303140C5DE340DB
:1008980043609468C4F382240C5D23FA04F48460F2
:1008A80092685DF8044BC2F342328A5CD340C3605D
:1008B8007047134B0360E4E76368616813F4800FC3
:1008C800636818BF0E4C01F03F020CBF0A49B4FB25
:1008D800F2F1C3F3881308BFB1FBF2F101FB03F295
:1008E800044B5B68C3F3014301335B00B2FBF3F3D2
:1008F8000360C6E7003802400024F4001800002016
:1009080000127A0000F44073B3F5407F09D108491A
:100918008B6820F0704223F4F81322F440721343DA
:100928008B60034A136FC0F30B00184310677047BE
:1009380000380240014B1860704700BF3C0E474228
:10094800014B1860704700BF400E4742014B1860CA
:10095800704700BF5C014742044AD2F88C30013826
:1009680023F01F030343C2F88C307047003802405D
:10097800054AD2F88C30013823F4F85343EA0023AF
:10098800C2F88C30704700BF00380240044AD2F8E1
:100998008C3023F440131843C2F88C00704700BF12
:1009A80000380240044AD2F88C3023F4400318433C
:1009B800C2F88C00704700BF00380240044AD2F8E1
:1009C8008C3023F440331843C2F88C00704700BFC2
:1009D80000380240014B1860704700BFE0114742E1
:1009E800044A136B19B923EA0000106370471843CF
:1009F8001063704700380240044A536B19B923EA60
:100A08000000506370471843506370470038024035
:100A1800044A936B19B923EA00009063704718439E
:100A28009063704700380240044A136C19B923EAEE
:100A38000000106470471843106470470038024083
:100A4800044A536C19B923EA0000506470471843EC
:100A58005064704700380240044A136919B923EA00
:100A68000000106170471843106170470038024059
:100A7800044A536919B923EA0000506170471843C2
:100A88005061704700380240044A936919B923EA53
:100A98000000906170471843906170470038024029
:100AA800044A136A19B923EA000010627047184310
:100AB8001062704700380240044A536A19B923EAA1
:100AC8000000506270471843506270470038024077
:100AD800044A136D19B923EA0000106570471843DA
:100AE8001065704700380240044A536D19B923EA6B
:100AF8000000506570471843506570470038024041
:100B0800044A936D19B923EA0000906570471843A9
:100B18009065704700380240044A136E19B923EAF9
:100B2800000010667047184310667047003802408E
:100B3800044A536E19B923EA0000506670471843F7
:100B48005066704700380240044A137819B923EAFE
:100B58000000107070471843107070470D3802403D
:100B68004309012B0BD0022B094B0CBF1A6F5A6F8C
:100B780000F01F0322FA03F000F001007047044B55
:100B88001A6800F01F0322FA03F000F00100704712
:100B980000380240024A536F43F08073536770472E
:100BA80000380240034BDB68184214BF01200020C4
:100BB800704700BF00380240014B1870704700BFF3
:100BC8000E38024008B54B4B98422AD04A4B9842FF
:100BD80031D04A4B984238D0494B98423FD0494B84
:100BE800984246D0484B98424DD0484B984254D0F2
:100BF800474B98425BD0474B984262D0464B98424D
:100C08006BD0464B984200D008BD4FF4806001215C
:100C1800FFF722FF4FF480600021BDE80840FFF78E
:100C28001BBF01200146FFF717FF01200021BDE887
:100C38000840FFF711BF02200121FFF70DFF022036
:100C48000021BDE80840FFF707BF04200121FFF796
:100C580003FF04200021BDE80840FFF7FDBE08207F
:100C68000121FFF7F9FE08200021BDE80840FFF741
:100C7800F3BE10200121FFF7EFFE10200021BDE890
:100C88000840FFF7E9BE20200121FFF7E5FE2020FC
:100C98000021BDE80840FFF7DFBE40200121FFF733
:100CA800DBFE40200021BDE80840FFF7D5BE8020CC
:100CB8000121FFF7D1FE80200021BDE80840FFF7A1
:100CC800CBBE4FF480700121FFF7C6FE4FF4807051
:100CD8000021BDE80840FFF7BFBE4FF400700121B6
:100CE800FFF7BAFE4FF400700021BDE80840FFF797
:100CF800B3BE00BF000002400004024000080240EA
:100D0800000C02400010024000140240001802408B
:100D1800001C02400020024000240240002802403B
:100D280000222DE9F0431346D1F800E001274FF0E7
:100D3800030C04E00133102B02F1020228D007FA59
:100D480003F404EA0E05A542F4D1D0F800800E7928
:100D58000CFA02F4E44304EA0808C0F80080D0F86A
:100D6800008006FA02F9013E49EA0808012EC0F897
:100D780000800FD9C568CE792C40C460C56806FAD2
:100D880002F401332C43102BC46002F10202D6D1C5
:100D9800BDE8F083D0F8089091F805808E7904EAD0
:100DA8000909C0F80890D0F8089008FA02F848EA4B
:100DB8000908C0F80880D0F8048028EA05054560CD
:100DC800D0F8048006FA03F5ADB245EA0805456097
:100DD800D0E700BF00234FF6FF7202600371437132
:100DE8008371C371704700BF82B04FF480330193A1
:100DF800019B0B430193019BC361C161019BC361CB
:100E0800C3690193C369019302B07047036919422A
:100E180014BF012000207047006980B2704700BFEE
:100E28004369194214BF012000207047406980B20D
:100E3800704700BF01837047418370470AB94183F7
:100E480070470183704700BF41617047436959404B
:100E580041617047CB0800EB830001F0070110B433
:100E68008900046A0F238B4024EA03030362036AA0
:100E78005DF8044B8A4013430362704708B53A4B48
:100E8800984221D0394B984228D0394B984231D0DA
:100E9800384B98423AD0384B984243D0374B984217
:100EA8004CD0374B984253D0364B984200D008BDAF
:100EB8004FF000400121FFF7F3FD4FF00040002103
:100EC800BDE80840FFF7ECBD10200121FFF7F4FD55
:100ED80010200021BDE80840FFF7EEBD4FF40030B8
:100EE8000121FFF7DDFD4FF400300021BDE8084087
:100EF800FFF7D6BD4FF480200121FFF7D1FD4FF455
:100F080080200021BDE80840FFF7CABD4FF400204B
:100F18000121FFF7C5FD4FF400200021BDE808407E
:100F2800FFF7BEBD4FF480100121FFF7B9FD4FF464
:100F380080100021BDE80840FFF7B2BD2020012144
:100F4800FFF7BAFD20200021BDE80840FFF7B4BD37
:100F58004FF080400121FFF7A3FD4FF080400021B2
:100F6800BDE80840FFF79CBD001001400044004068
:100F780000480040004C0040005000400014014070
:100F880000780040007C0040028A8B88F0B592B25D
:100F9800CE880F8904460D4622F440523243A88970
:100FA80049892282A2893B4392B20B4322F4B05270
:100FB80022F00C029BB21343A381A38A9BB223F4B1
:100FC8004073034385B0A3826846FFF74FFC1D4B6F
:100FD8009C4229D003F580639C4225D0029AA389BC
:100FE800A6891BB2002B2B6802EB8202B4BF5B0000
:100FF8009B0002EB8202B2FBF3F0134A36B2A2FB6B
:1010080000356D096423002E05FB13034FEA05150F
:101018000CDB1B013233A2FB0323C3F343132B4323
:101028009BB2238105B0F0BD039AD8E7D9003231CD
:10103800A2FB0131C1F3421242EA05039BB22381AC
:1010480005B0F0BD001001401F85EB5100234FF49F
:1010580016510C22016042818380C3800381838101
:10106800704700BF30B40A884D888C88038AC988C5
:101078002A4322430A439BB292B223F47063134378
:10108800038230BC704700BF002303804380838005
:10109800C3807047838929B923F400531B041B0CB0
:1010A800838170479BB243F400538381704700BF2C
:1010B800038B03F47F430383038B9BB219430183A0
:1010C800704700BF838919B9C3F30E038381704742
:1010D8006FEA43436FEA53439BB28381704700BF73
:1010E800838A29B923F400631B041B0C838270478D
:1010F8009BB243F400638382704700BFC1F30801C9
:10110800818070478088C0F308007047038A23F005
:101118000F031B041B0C0382038A9BB21943018231
:10112800704700BF838929B923F002031B041B0CF5
:10113800838170479BB243F002038381704700BFED
:10114800838923F400631B041B0C838183899BB26E
:1011580019438181704700BF038A23F020031B04D1
:101168001B0C0382038A9BB219430182704700BF9C
:10117800038A29B923F480431B041B0C038270479C
:101188009BB243F480430382704700BF83899BB2BC
:1011980043F0010383817047838A29B923F0080348
:1011A8001B041B0C838270479BB243F008038382A5
:1011B800704700BF038BDBB20383038B9BB243EA08
:1011C80001210183704700BF838A29B923F02003D6
:1011D8001B041B0C838270479BB243F0200383825D
:1011E800704700BF838A29B923F010031B041B0C26
:1011F800838270479BB243F010038382704700BF1D
:10120800838A23F004031B041B0C8382838A9BB20A
:1012180019438182704700BF838A29B923F00203EA
:101228001B041B0C838270479BB243F0020383822A
:10123800704700BF838A9BB21AB923EA01018182F1
:10124800704719438182704710B401F01F04C1F33D
:1012580042110123012903FA04F311D002290CBF1A
:101268001030143032B902685DF8044B22EA0303E7
:101278000360704702685DF8044B134303607047CE
:101288000C30EFE70388194214BF01200020704793
:10129800C94389B201807047C1F3421210B40123D7
:1012A80001F01F04012A03FA04F316D0022A0CBF26
:1012B800028A828A92B21340028892B24BB1090A1A
:1012C80001238B40134214BF012000205DF8044B1A
:1012D800704718465DF8044B7047828992B21340F4
:1012E800EAE700BF090A01238B40DB439BB2038076
:1012F800704700BF274B284A1B68A2FB03239B0C9F
:10130800013BB3F1807F00D3FEE770B5234A24493F
:10131800536000240723F02082B081F823009460F2
:10132800082013600121FFF75BFB01200146FFF74E
:1013380057FB01264FF470436946032519488DF879
:1013480006408DF8074000938DF804608DF805502D
:10135800FFF7E6FC0223694613488DF804408DF830
:1013680006408DF8073000968DF8055042F210744B
:10137800FFF7D6FCFEF74CFF0C480D49FEF7A2FF1D
:10138800013CF9D109480B49FEF79CFFFEF7B4FF71
:10139800FCE700BF1400002083DE1B4310E000E0E0
:1013A80000ED00E0000C0240000002400044004054
:1013B800C0130008D013000868656C6C6F20776F45
:1013C800726C6421000000000A7965790A00000047
:1013D80001000000000000000000000001020304FA
:1013E80006070809007A030A000000000102030446
:0813F8000102030406070809C5
:040000050800037973
:00000001FF
