:020000040800F2
:100000000000022045020008B5020008B9020008FD
:1000100041020008410200084102000800000000FF
:100020000000000000000000000000004102000885
:10003000410200080000000041020008A101000880
:100040004102000841020008410200084102000884
:10005000410200084102000819020008410200089C
:100060004102000841020008410200084102000864
:100070004102000841020008410200084102000854
:100080004102000841020008410200084102000844
:100090004102000841020008410200084102000834
:1000A0004102000841020008410200084102000824
:1000B0004102000841020008410200084102000814
:1000C0004102000841020008410200084102000804
:1000D00041020008410200084102000841020008F4
:1000E00041020008410200084102000841020008E4
:1000F00041020008410200084102000841020008D4
:1001000041020008410200084102000841020008C3
:1001100041020008410200084102000841020008B3
:1001200041020008410200084102000841020008A3
:100130004102000841020008410200084102000893
:100140004102000841020008410200084102000883
:100150004102000841020008410200084102000873
:100160004102000841020008410200084102000863
:100170004102000841020008410200084102000853
:080180004102000841020008E1
:10018800014B07221A60704710E000E0014B05227E
:100198001A60704710E000E0024A136801331360E8
:1001A800704700BF240000200C4B0D4A1B68A2FBBF
:1001B80003239B0C013BB3F1807F00D3FEE7094A80
:1001C800094810B4F0245360002180F82340072325
:1001D80091605DF8044B1360704700BF1000002069
:1001E80083DE1B4310E000E000ED00E030B583B093
:1001F80000250091032469468DF804208DF8073006
:100208008DF806508DF8054000F044FD03B030BD70
:1002180008B5012000F080FC00B908BD012000F0FD
:1002280085FC03484FF48041BDE8084000F0C8BD94
:10023800000C0240704700BFFEE700BF6846164A40
:10024800164B20F007018D469A4201B50CD2D043D7
:10025800184420F00300124B0430184453F8041BD0
:1002680042F8041B8342F9D10E4B0F4A93420AD23B
:10027800D9430A4422F0030204321A44002143F805
:10028800041B9342FBD100F023F800F0F7FDBDE812
:1002980001408546704700BF000000202400002070
:1002A8005C0F00082400002028000020704700BFD1
:1002B800FEE700BFFEE700BFFEE700BFFEE700BFA6
:1002C800704700BF704700BF704700BF704700BF4E
:1002D800364B37481A68002142F001021A609960CB
:1002E8001A6822F0847222F480321A6058601A6800
:1002F80082B022F480221A60D960009101911A68B4
:1003080042F480321A601A4603E0009BB3F5A04F0E
:1003180009D0136803F400330193009B0133009361
:10032800019B002BF1D0214B1B6813F4003318BF3D
:1003380001230193019B012B05D01E4B4FF0006256
:100348009A6002B07047194B1B491A6C1B4842F05F
:1003580080521A640A6842F440420A609A689A60B5
:100368009A6842F400429A609A6842F4A0529A60ED
:1003780058601A6842F080721A601A4611680B4B6E
:100388008901FBD50E4A40F2057111609A6822F086
:1003980003029A609A6842F002029A601A469368C9
:1003A80003F00C03082BFAD1C7E700BF003802405E
:1003B8001030002400ED00E00070004008544007B1
:1003C800003C02401848836803F00C03042B28D033
:1003D800082B09D0154B144A15499268C2F3031229
:1003E8008A5CD3400B6170474368416813F4800FFF
:1003F800436818BF0F4801F03F020CBF0B49B0FB20
:10040800F2F1C3F3881308BFB1FBF2F101FB03F269
:10041800054B5B68C3F3014301335B00B2FBF3F3A5
:10042800D9E7044BD7E700BF003802400024F400A6
:100438000000002000127A0040F0BF60024B40F438
:100448000030D860704700BF00ED00E0C3785BB9AA
:10045800037818485A09203203F01F03012101FAD2
:1004680003F340F822307047134BF0B4D96845784D
:10047800827804780F4EC943C1F30221C1F1040701
:10048800FFB20F23BD400B411340E9B20B4304F107
:10049800604202F561421B01DBB282F80033037847
:1004A800012203F01F015B098A4046F82320F0BCB3
:1004B800704700BF00E100E000ED00E021F060417E
:1004C80021F07F01014B08439860704700ED00E080
:1004D800044A136919B923EA0000106170471843E8
:1004E8001061704700ED00E0044A136804280CBF4F
:1004F80043F0040323F004031360704710E000E0A6
:100508000F4B10481A68002142F0010230B41A60FB
:1005180099601A680C4D0D4C22F0A85222F4102252
:100528001A605D60C3F88440C3F888001A6822F432
:1005380080221A6030BCD960C3F88C10704700BFA5
:100548000038024000300024103000240030002021
:10055800024B00221A701870704700BF0238024020
:1005680082B000230A4A019302E0B3F5A04F08D0F5
:10057800136813F4003F019B03F101030193019BEE
:10058800F3D0034B1868C0F3404002B0704700BF77
:1005980000380240034A136823F0F80343EAC00016
:1005A8001060704700380240014B1860704700BF68
:1005B80000004742064B002201281A701A7005D025
:1005C800042802D105221A707047704718707047C6
:1005D80070380240014B1860704700BF800E4742D8
:1005E80030B4029C064D40EA046001435B08013BBD
:1005F80041EA821242EA0340686030BC704700BF9B
:1006080000380240014B1860704700BF6000474245
:100618000907034B41EA8010C3F88400704700BF04
:1006280000380240014B1860704700BF680047421D
:10063800120742EA0161034B41EA8010C3F88800BF
:10064800704700BF00380240014B1860704700BF78
:1006580070004742014B1860704700BF4C0047428A
:10066800034A936823F0EC6319430843906070478A
:1006780000380240034A936823F07843194308433B
:100688009060704700380240034A936823F00303E0
:1006980018439060704700BF00380240024B9868CA
:1006A80000F00C00704700BF00380240034A93680E
:1006B80023F0F00318439060704700BF00380240F1
:1006C800034A936823F4E05318439060704700BFCF
:1006D80000380240034A936823F4604343EAC000A9
:1006E800906070470038024010B4214CA36803F0B2
:1006F8000C03042B1BD0082B1CD01E4B03601C4A78
:100708001D499468C4F303140C5DE3404360946886
:10071800C4F382240C5D23FA04F4846092685DF8C3
:10072800044BC2F342328A5CD340C3607047134B18
:100738000360E4E76368616813F4800F636818BFB7
:100748000E4C01F03F020CBF0A49B4FBF2F1C3F3AF
:10075800881308BFB1FBF2F101FB03F2044B5B689D
:10076800C3F3014301335B00B2FBF3F30360C6E755
:10077800003802400024F4001400002000127A001F
:1007880000F44073B3F5407F09D108498B6820F025
:10079800704223F4F81322F4407213438B60034A27
:1007A800136FC0F30B0018431067704700380240FE
:1007B800014B1860704700BF3C0E4742014B186060
:1007C800704700BF400E4742014B1860704700BF9A
:1007D8005C014742044AD2F88C30013823F01F03E9
:1007E8000343C2F88C30704700380240054AD2F8FB
:1007F8008C30013823F4F85343EA0023C2F88C30D4
:10080800704700BF00380240044AD2F88C3023F405
:1008180040131843C2F88C00704700BF00380240EC
:10082800044AD2F88C3023F440031843C2F88C00F1
:10083800704700BF00380240044AD2F88C3023F4D5
:1008480040331843C2F88C00704700BF003802409C
:10085800014B1860704700BFE0114742044A136B10
:1008680019B923EA000010637047184310637047F2
:1008780000380240044A536B19B923EA0000506358
:10088800704718435063704700380240044A936B1E
:1008980019B923EA000090637047184390637047C2
:1008A80000380240044A136C19B923EA00001064A6
:1008B800704718431064704700380240044A536C6C
:1008C80019B923EA00005064704718435064704710
:1008D80000380240044A136919B923EA000010617C
:1008E800704718431061704700380240044A536942
:1008F80019B923EA000050617047184350617047E6
:1009080000380240044A936919B923EA000090614B
:10091800704718439061704700380240044A136AD0
:1009280019B923EA00001062704718431062704733
:1009380000380240044A536A19B923EA0000506299
:10094800704718435062704700380240044A136DDC
:1009580019B923EA000010657047184310657047FD
:1009680000380240044A536D19B923EA0000506563
:10097800704718435065704700380240044A936D29
:1009880019B923EA000090657047184390657047CD
:1009980000380240044A136E19B923EA00001066B1
:1009A800704718431066704700380240044A536E77
:1009B80019B923EA0000506670471843506670471B
:1009C80000380240044A137819B923EA000010706D
:1009D80070471843107070470D3802404309012BC7
:1009E8000BD0022B094B0CBF1A6F5A6F00F01F0374
:1009F80022FA03F000F001007047044B1A6800F077
:100A08001F0322FA03F000F001007047003802408B
:100A1800024A536F43F080735367704700380240AF
:100A2800034BDB68184214BF01200020704700BF49
:100A380000380240014B1870704700BF0E38024062
:100A4800044B054900221A605A609A60DA605961BD
:100A5800704700BF003C0140FFFF7F00837933B33C
:100A68001C4B02794179F0B404681E68E7433E40A4
:100A78001E605D6802F1804202F59E323D405D6075
:100A880015682C43146002689C68D5432C409C6010
:100A9800D868102900EA0500D86013D001F1804316
:100AA80003F59E33F0BC19680A431A60704703794E
:100AB800016803F1804303F59E331A6822EA0102B4
:100AC8001A607047996811439960D9680A43DA60D7
:100AD800F0BC7047003C014000230C2242710360C7
:100AE80003718371704700BF024A1369184310618C
:100AF800704700BF003C0140034B5B69184214BFBC
:100B080001200020704700BF003C0140014B5861A4
:100B1800704700BF003C0140034B5B69184214BF9B
:100B280001200020704700BF003C0140014B586184
:100B3800704700BF003C014008B54B4B98422AD093
:100B48004A4B984231D04A4B984238D0494B984248
:100B58003FD0494B984246D0484B98424DD0484BDD
:100B6800984254D0474B98425BD0474B984262D04A
:100B7800464B98426BD0464B984200D008BD4FF484
:100B880080600121FFF7A6FE4FF480600021BDE8D8
:100B98000840FFF79FBE01200146FFF79BFE01209A
:100BA8000021BDE80840FFF795BE02200121FFF7AC
:100BB80091FE02200021BDE80840FFF78BBE04200B
:100BC8000121FFF787FE04200021BDE80840FFF758
:100BD80081BE08200121FFF77DFE08200021BDE825
:100BE8000840FFF777BE10200121FFF773FE1020A1
:100BF8000021BDE80840FFF76DBE20200121FFF766
:100C080069FE20200021BDE80840FFF763BE4020B0
:100C18000121FFF75FFE40200021BDE80840FFF7F3
:100C280059BE80200121FFF755FE80200021BDE834
:100C38000840FFF74FBE4FF480700121FFF74AFECE
:100C48004FF480700021BDE80840FFF743BE4FF421
:100C580000700121FFF73EFE4FF400700021BDE84F
:100C68000840FFF737BE00BF000002400004024002
:100C780000080240000C024000100240001402402C
:100C880000180240001C02400020024000240240DC
:100C98000028024000222DE9F0431346D1F800E075
:100CA80001274FF0030C04E00133102B02F102027C
:100CB80028D007FA03F404EA0E05A542F4D1D0F8C7
:100CC80000800E790CFA02F4E44304EA0808C0F83C
:100CD8000080D0F8008006FA02F9013E49EA0808C7
:100CE800012EC0F800800FD9C568CE792C40C460A9
:100CF800C56806FA02F401332C43102BC46002F1D4
:100D08000202D6D1BDE8F083D0F8089091F80580AA
:100D18008E7904EA0909C0F80890D0F8089008FA12
:100D280002F848EA0908C0F80880D0F8048028EAE0
:100D380005054560D0F8048006FA03F5ADB245EA2A
:100D480008054560D0E700BF00234FF6FF72026038
:100D5800037143718371C371704700BF82B04FF450
:100D680080330193019B0B430193019BC361C161D4
:100D7800019BC361C3690193C369019302B07047C2
:100D88000369194214BF012000207047006980B22E
:100D9800704700BF4369194214BF01200020704703
:100DA800406980B2704700BF018370474183704734
:100DB8000AB9418370470183704700BF416170479A
:100DC8004369594041617047CB0800EB830001F04B
:100DD800070110B48900046A0F238B4024EA030337
:100DE8000362036A5DF8044B8A4013430362704749
:100DF80008B54FF480400121FFF79CFD4FF4804077
:100E08000021BDE80840FFF795BD00BF014B186001
:100E1800704700BF00380140014B1860704700BFA1
:100E28002000274201F0FC0303F1804303F59C33C3
:100E380001F0030110B489009C680F228A4024EA5B
:100E480002029A609A685DF8044B884002439A60EF
:100E5800704700BF014B1860704700BFDC00274295
:100E6800014B1860704700BF00042742024B186A04
:100E7800C0F30020704700BF003801402F4B304AB4
:100E88001B68A2FB03239B0C013BB3F1807F00D3BB
:100E9800FEE770B52B4A2C49536000240723F02045
:100EA80084B081F823009460082013600121FFF7C3
:100EB800D5FC01200146FFF7D1FC01254FF4704312
:100EC80002A90326214802938DF80E408DF80F40A1
:100ED8008DF80C508DF80D60FFF7DCFE022302A997
:100EE8001B488DF80F3002958DF80C408DF80E4098
:100EF8008DF80D60FFF7CEFE14484FF48041FFF7E0
:100F080053FF20462146FFF78DFF082302A88DF8DE
:100F18000D3002958DF80C408DF80E50FFF79EFDB0
:100F2800062301A88DF805508DF806508DF8075056
:100F38008DF80430FFF78AFAFEE700BF10000020A2
:100F480083DE1B4310E000E000ED00E0000C0240EF
:040F58000000024053
:100F5C00000000000000000001020304060708095D
:100F6C00007A030A000000000102030401020304DA
:040F7C000607080953
:0400000508000245A8
:00000001FF
